:02000000532C7F
:0E000600213083120313FD00FD0B07280800B4
:100014000F3083120313FC004730FD00FD0B102842
:0A002400FC0B10280000000008008B
:06002E00000000000800C4
:1000340083160313A51B21288312881223288312F5
:1000440088168316251B2928831208122B2883124D
:1000540008168316A51A31288312881133288312AF
:1000640088158316251A3928831208113B28831210
:1000740008154A183F280814402808108814172027
:1000840088108316A5194928831288124B288312D5
:1000940088168316251951288312081253288312AF
:1000A40008168316A5185928831288115B28831211
:1000B4008815831625186128831208116328831272
:1000C40008154A1867280814682808108814172087
:0E00D40088104A1C6F280A207028032008009C
:1000E2007B15FB1F7B280130F300F201F101F001C7
:0800F200FA0DF20CFF300800CA
:0800FA00FA1FF21300300800A8
:1001020083120313F801F9011030FC00710DF80D90
:10011200F90D7408F8027508031C750FF90203182B
:1001220099287408F80775080318750FF907031062
:0A013200F00DF10DFC0B872808000A
:0E013C00F201F101F001F801F30100300800BA
:10014A00A0017208031DBA287108F2007008F100B4
:10015A00F001A0157208031DBA287108F200F10116
:10016A00A011201672080319C8282008F302031DDB
:10017A00031CCC280310F21BD028F00DF10DF20D50
:10018A00F30BC028CC280130FC009E20D328023073
:0E019A00FC007120D3280430FC007D200800FA
:1001A80083160313A301053023020318E22823084A
:1001B8002207840020308000A30AD72823082207BA
:1001C80084008001A30323082207A4000A30F40056
:1001D800F5012008F0002108F10081207808F000DE
:1001E8007908F1003030F00783162408840070087D
:1001F80080000A30F400F5012008F0002108F10021
:10020800812070088316A0007108A10000307106D3
:10021800031D102900307006031D13291529A30397
:04022800E7280800BB
:10022C000E3083120313FD00FD0B1A290000080089
:0E023C008312031349088A0048088200080054
:10024A00831203134A1083162008A5001A204A14A1
:02025A0008009A
:10025C007B14FB1F3929F201FA1FFF30F200F10069
:0A026C00F000FA0DF20CFF3008005C
:10027600FB14FB1F4529FF30F300F200F100F000EC
:08028600FA0DF20CFF30080034
:06028E00FB15FF30080023
:10029400831203137408003A031D65297508003A94
:1002A400031D65297608003A031D65297708003A7D
:1002B400031D6529FF30F000FF30F1007F30F200AC
:1002C400FF30F300002A8312031377080319F4297B
:1002D40073080319F729720876068039FA00F217B1
:1002E400F617A0017208F8007108FC007008FD0000
:1002F4007408FD027508031C750FFC027608031CC4
:10030400760FF802F801FC01FD01031C902903108B
:10031400F20CF10CF00CF80C0130A0007708F30299
:10032400031C9A297E302007F3070318FA299F2912
:100334007E302007F307031CFD291830FA07FD0D52
:10034400FC0DF80DF00DF10DF20DA00D7408F00286
:100354007508031C750FF1027608031C760FF20270
:10036400760DA004201CB8297D14C3297408F00755
:1003740075080318750FF10776080318760AF20753
:100384007D10FA031F307A05031DA1297B1B7D1CF8
:10039400EA290310F00DF10DF20DA00D7408F0021E
:1003A4007508031C750FF1027608031C760FF20220
:1003B400760D20040139FD070318FC0A0319F80A15
:1003C400031DEA29F80CFC0CFD0CF30A0319FA29A5
:1003D400FA1FF8137808F2007C08F1007D08F00099
:1003E4000030FF2901304721FF2902309E20FF29D8
:0E03F40004303B21FF29083071200000080072
:10040200831203137008F8007108F000F101F20181
:10041200F301FB01FC019630F300FA017008F100D0
:0C0422007808F000F801F201A5200800A5
:10042E0083120313FB0173080319542A7208FA008E
:10043E00F2178E30F302F31F572AF309F30A08302E
:10044E007302031C3A2AF300F10D7208F100F20157
:10045E0008307302031C3A2AF300F10DF101730800
:10046E00031D0310422A73080319422A0310F20CCB
:10047E00F10CF30B3D2A7B1B711C4C2A031C4C2ADE
:10048E00F10A0319F20AF21B632AFA1F662AF2090D
:10049E00F109F10A0319F20A662AF201F101662A3C
:1004AE007B14FB1F692AF201FA1F692AFF30F20042
:1004BE00F100FA0DF20C692A0130FC006B2A0030B3
:1004CE00FC006B2AFF30FC00FC0803196F2A2E215A
:0A04DE007108F0007208F100080038
:1004E80083120313FB017308031D77080319CB2A32
:1004F80072087606FA007708F3077E30031C882A0C
:10050800F3020318CE2A8B2AF302031CD12A72089D
:10051800F8007108FC007008FD00F817F6170310C2
:10052800F201F101F0011830A0007D1CA52A740821
:10053800F00775080318750FF10776080318760F8A
:10054800F207F20CF10CF00CF80CFC0CFD0C03108B
:10055800A00B992AF21BB52AF80DF00DF10DF20D3A
:10056800F3037B1B701CC72AF81FC72AF00A03195C
:10057800F10A0319F20A031DC72AF20CF10CF00C58
:10058800F30A0319CE2AFA1FF2130030D32A0130D6
:100598009E20D32A02303B21D32A04307120000048
:0205A800080049
:1005AA0083120313FA017308031D7A147708031DD3
:1005BA00FA147A080319212B033A0319EC2A7A1838
:1005CA00E92AF61F1F2B1D2BF21F1D2B1F2B72084A
:1005DA008039FA00F21376088039F6137A0603197D
:1005EA00FA2A7A0803191D2B1F2B7708730203199D
:1005FA00012B031C152B192B760872020319082BE1
:10060A00031C152B192B7508710203190F2B031CD8
:10061A00152B192B740870020319212B0318192B97
:10062A00FA0803191F2B1D2BFA0803191D2B1F2B60
:10063A000314080003100800031403150800080037
:10064A00372B803083120313E7004A2BC030E700B0
:10065A004A2B9430E7004A2BD430E7004A2B8030EB
:10066A00E7004A2B831203136708013A0319262B62
:10067A006708023A03192B2B6708033A03192E2B32
:10068A006708043A0319312B342B6803F000670812
:10069A00F0077008E70070088316A5001A204A10B0
:1006AA00EA016A086907840000080319652B6A08C9
:1006BA006907840000088316A0002521EA0A562B40
:0406CA004A140800C6
:1006CE0083120313EC01ED016708EE006808EF00DA
:1006DE0080306806F00080307002031D782B0030E9
:1006EE0067020318862B0130EC000030ED0067081E
:1006FE00003CEE006808031C013EEF01EF026E089D
:10070E008316A00083126F088316A1008312690856
:10071E008316A200D42006308312EA000030EB00CC
:10072E006B08003C031D9D2B6A08003C0318B82B78
:10073E006A086907F20001306A02F0000030031CFB
:10074E00013E6B02F1007008690784000008F0009A
:10075E0072088400700880000130EA02031CEB036B
:10076E00972B69088400203080006C086D040319F3
:10077E00D62BEA01EB016A08690784000008203ACB
:10078E00031DCD2BEA0A0319EB0AC22B0130EA0234
:10079E00031CEB036A08690784002D3080000800F3
:1007AE001E218A110A128000840AC80A0319C90A76
:0807BE00F003031DD72B080016
:1007C600C330831203139F05C0309F006708F000F3
:1007D600F00D7010F00D701070089F0483169F17AF
:1007E60083121F1416219F149F1CFB2B0000F72B4E
:1007F6001F101E08F100F00183161E08F0040030D9
:04080600F1040800F1
:10080A008316031388100810081188110812881219
:10081A0083128810081088120812881108110A20F9
:10082A000A200A20881508158814172088100A201B
:10083A008814172088100A208814172088100A2084
:10084A0008118814172088100A2088141720881085
:10085A00881188168814172088100A20881208150B
:10086A0088141720881008118814172088100A2065
:10087A0088141720881008158814172088100A2051
:10088A000811881417208810881608168815081564
:0C089A008814172088100A204A14080057
:1008A6000E26FF30831603138500013003178800D8
:1008B6008901860183120313860183168701831239
:1008C6008701052401308316A5001A200C308316F3
:1008D600A5001A200130E7000130E8002130E900C8
:1008E6002523E701E32370088312CB007108CC00AF
:1008F60001220030F400C030F5007F30F600883069
:10090600F7004A210030F4000030F5002030F600F0
:100916008130F70074227008CD007108CE0072088D
:10092600CF007308D0004008F4004108F5004208E3
:10093600F6004308F700D522013003180030F00016
:100946007008031DBF2C4D08F4004E08F5004F0833
:10095600F6005008F7003C08F0003D08F1003E089C
:10096600F2003F08F300D522013003180030F000F2
:100976007008031DBF2CC02C06144408F40045085B
:10098600F5004608F6004708F7004D08F0004E0847
:10099600F1004F08F2005008F300D5220130031C85
:1009A6000030F0007008031D0A2D3C08F4003D08D5
:1009B600F5003E08F6003F08F7004D08F0004E0827
:1009C600F1004F08F2005008F300D5220130031859
:1009D6000030F00070080319092D4008F4004108A2
:1009E600F5004208F6004308F7004D08F0004E08EF
:1009F600F1004F08F2005008F300D5220130031C25
:100A06000030F00070080319092D0A2D0B2D061071
:100A16000030F4000030F5002030F6008130F70099
:100A26004D08F0004E08F1004F08F2005008F300A0
:100A36004A210030F4000030F5004830F6008530D9
:100A4600F700742217227008E5007108E6007008A6
:100A5600E7007108E8005530E90067233208F40022
:100A66003308F5003408F6003508F7004D08F000A5
:100A76004E08F1004F08F2005008F3004A211722F1
:100A86007008D3007108D4004D08F4004E08F50034
:100A96004F08F6005008F7003C08F0003D08F1004A
:100AA6003E08F2003F08F300D5220130031800305B
:100AB600F00070080319762D0130D1000030D20005
:100AC60052085402031D692D51085302031C762D4A
:100AD6000130E7005108E8003630E9002523D10A45
:100AE6000319D20A632D3C08F4003D08F5003E08C0
:100AF600F6003F08F7004D08F0004E08F1004F08D9
:100B0600F2005008F300D522013003180030F0003F
:100B160070080319AC2D5308013ED10000300318AC
:100B2600013E5407D2008030F00080305206700239
:100B3600031D9F2D5108103C031CAC2D0130E7000E
:100B46005108E8003A30E9002523D10A0319D20AF0
:100B5600962D5408003C031DB22D5308003C031883
:100B6600B62D5308870000305406031DBC2D0030F7
:100B76005306031DBF2D870100305406031DC52DE6
:100B860010305306031DC92D0F3087000230E700D1
:100B96000430E8005530E90025230230E7000A302A
:100BA600E8003830E90025234D08BC004E08BD009A
:0C0BB6004F08BE005008BF00742CE02D5A
:100C1C0021308400273083120313F000E630C80023
:080C2C000530C900D7230800C0
:100BCC002D342D342D342D342D342D342D342D3411
:100BDC002D342D342D342D342D342D342D342D3401
:020BEC000034D3
:080BEE000034003420347D3492
:040BF6003034003463
:040BFA00253400346A
:040BFE002D3400345E
:080C020000340034003400341A
:080C0A000034003420347F3473
:080C120000340034703480341A
:04400E00F22F000786
:00000001FF
